:100000000C945D000C9485000C9485000C94850084
:100010000C9485000C9485000C9485000C9485004C
:100020000C9485000C9485000C9485000C94AF030F
:100030000C9485000C9485000C9485000C9485002C
:100040000C940D030C9485000C947D030C945703C1
:100050000C9485000C9485000C9485000C9485000C
:100060000C9485000C94850000000008000201003B
:100070000003040700000000000000000000000072
:10008000250028002B0000000000240027002A0083
:10009000040404040404040402020202020203032E
:1000A0000303030301020408102040800102040836
:1000B00010200102040810206B0411241FBECFEF92
:1000C000D8E0DEBFCDBF11E0A0E0B1E0EEECFFE094
:1000D00002C005900D92A83CB107D9F722E0A8EC28
:1000E000B1E001C01D92AA39B207E1F710E0CDE5F9
:1000F000D0E004C02197FE010E94DF07CC35D10774
:10010000C9F70E94E2040C94E5070C94000090E00B
:10011000FC01EC55FF4F249180579F4FFC018491C7
:10012000882399F090E0880F991FFC01EA57FF4F50
:10013000A591B491FC01E458FF4F859194918FB73C
:10014000F894EC91E22BEC938FBF089590E0FC01C2
:10015000E859FF4F2491FC01EC55FF4F3491FC010D
:10016000E057FF4FE491EE23C9F0222339F023300A
:1001700001F1A8F4213019F1223029F1F0E0EE0F5D
:10018000FF1FE458FF4FA591B4918FB7F894EC91FD
:10019000611126C030953E233C938FBF08952730D0
:1001A000A9F02830C9F0243049F7809180008F7D74
:1001B00003C0809180008F7780938000DFCF84B56B
:1001C0008F7784BDDBCF84B58F7DFBCF8091B0006E
:1001D0008F778093B000D2CF8091B0008F7DF9CF20
:1001E0003E2BDACF3FB7F8948091CA019091CB01B2
:1001F000A091CC01B091CD0126B5A89B05C02F3FA1
:1002000019F00196A11DB11D3FBFBA2FA92F982F3C
:100210008827BC01CD01620F711D811D911D42E037
:10022000660F771F881F991F4A95D1F70895AF92DF
:10023000BF92CF92DF92EF92FF920F931F93CF93D3
:10024000DF936C017B018B01040F151FEB015E0135
:10025000AE18BF08C017D10759F06991D601ED91CA
:10026000FC910190F081E02DC6010995892B79F769
:10027000C501DF91CF911F910F91FF90EF90DF901B
:10028000CF90BF90AF900895FC01538D448D252FE2
:1002900030E0842F90E0821B930B541710F0CF9620
:1002A000089501970895FC01918D828D981761F052
:1002B000A28DAE0FBF2FB11D5D968C91928D9F5F69
:1002C0009F73928F90E008958FEF9FEF0895FC0148
:1002D000918D828D981731F0828DE80FF11D858DFB
:1002E00090E008958FEF9FEF08952FB7F8948091D5
:1002F000CE019091CF01A091D001B091D1012FBF3B
:100300008093DA019093DB01A093DC01B093DD01CF
:1003100082ED91E00E94670197FF26C02FB7F89405
:100320008091CE019091CF01A091D001B091D101E7
:100330002FBF4091DA015091DB016091DC01709197
:10034000DD01841B950BA60BB70B4091D601509194
:10035000D7016091D8017091D90184179507A6073C
:10036000B707B0F28FEF9FEF0895FC01918D228DBA
:10037000892F90E0805C9F4F821B91098F73992792
:10038000089582ED91E00E94B50121E0892B09F4E6
:1003900020E0822F089580E090E0892B29F00E94D0
:1003A000C10181110C9400000895FC01A48DA80FD7
:1003B000B92FB11DA35ABF4F2C91848D90E00196A7
:1003C0008F739927848FA689B7892C93A089B189C7
:1003D0008C91837080648C93938D848D981306C068
:1003E0000288F389E02D80818F7D80830895EF92CC
:1003F000FF920F931F93CF93DF93EC0181E0888FDF
:100400009B8D8C8D98131AC0E889F989808185FFAE
:1004100015C09FB7F894EE89FF896083E889F98950
:1004200080818370806480839FBF81E090E0DF9152
:10043000CF911F910F91FF90EF900895F62E0B8DA5
:1004400010E00F5F1F4F0F731127E02E8C8D8E1160
:100450000CC00FB607FCFACFE889F989808185FFC7
:10046000F5CFCE010E94D501F1CFEB8DEC0FFD2F22
:10047000F11DE35AFF4FF0829FB7F8940B8FEA8982
:10048000FB8980818062CFCFCF93DF93EC01888D91
:100490008823B9F0AA89BB89E889F9898C9185FDFF
:1004A00003C0808186FD0DC00FB607FCF7CF8C918D
:1004B00085FFF2CF808185FFEDCFCE010E94D5016F
:1004C000E9CFDF91CF910895CF92DF92EF92FF9223
:1004D000CF93DF93EC01603282E07807CCF5653B87
:1004E000710514F064EB70E0898128E830E0281B86
:1004F000310987FD3395220F331F220F331F690106
:10050000330FEE08FF088A8128E532E0281B310905
:1005100087FD3395220F331F220F331F032E000C4C
:10052000440B550B2C193D094E095F09DB0177FF80
:1005300002C0B0E0A0E00E949A0724EB30E040E067
:1005400050E00E947007C20ED31EE41EF51EB601D5
:10055000E881EC3070F5298188E890E0821B9109F0
:1005600027FD9395880F991F880F991F68177907A2
:100570007CF02A8188E592E0821B910927FD939502
:10058000880F991F880F991F681779070CF4CB0102
:100590000297880F991F4FB7F8942E2F30E0F9017A
:1005A000EE0FFF1FE20FF31FE159FD4F928381838E
:1005B0004FBFDF91CF91FF90EF90DF90CF900895E4
:1005C000892B79F41092800082E080938100109250
:1005D000850010928400B19A80916F0082608093B0
:1005E0006F000895FC0101900020E9F73197AF01F9
:1005F000481B590BBC0182ED91E00C941701CF937D
:10060000DF930E94F202EC0182E191E00E94F2028B
:100610008C0F9D1FDF91CF9108951F920F920FB6FF
:100620000F9211242F933F938F939F93AF93BF9378
:100630008091CE019091CF01A091D001B091D101D4
:100640003091C90123E0230F2D3758F50196A11DE4
:10065000B11D2093C9018093CE019093CF01A09347
:10066000D001B093D1018091CA019091CB01A091AA
:10067000CC01B091CD010196A11DB11D8093CA019D
:100680009093CB01A093CC01B093CD01BF91AF91DA
:100690009F918F913F912F910F900FBE0F901F90C0
:1006A000189526E8230F0296A11DB11DD2CF1F92E7
:1006B0000F920FB60F9211242F933F934F935F9396
:1006C0006F937F938F939F93AF93BF93EF93FF931A
:1006D00082ED91E00E94D501FF91EF91BF91AF9122
:1006E0009F918F917F916F915F914F913F912F914A
:1006F0000F900FBE0F901F9018951F920F920FB67C
:100700000F9211242F938F939F93EF93FF93E09178
:10071000E201F091E3018081E091E801F091E901CB
:1007200082FD1BC090818091EB018F5F8F732091C0
:10073000EC01821741F0E091EB01F0E0EE52FE4F48
:10074000958F8093EB01FF91EF919F918F912F9166
:100750000F900FBE0F901F9018958081F4CF1F92BD
:100760000F920FB60F9211242F933F934F935F93E5
:100770006F937F938F939F93AF93BF93CF93DF93A9
:10078000EF93FF938091C801C0919302D0E087FF5F
:1007900024C010928500109284008091C8018F5F60
:1007A0008093C8018091C801082E000C990B8C170A
:1007B0009D0724F48091C8018C30C4F1809184009D
:1007C00090918500049680349C4908F47AC0809109
:1007D000840090918500049676C08091C801082E0F
:1007E000000C990B8C179D07C4F6E091C8018E2F61
:1007F000EE0F990BFC01EE0FFF1FE80FF91FE159F7
:10080000FD4F808186FFC9CFE091C8018E2FEE0F8A
:10081000990BFC01EE0FFF1FE80FF91FE159FD4F87
:10082000808160E08F730E94A600B7CF2091840082
:1008300030918500E091C8018E2FEE0F990BFC01DD
:10084000EE0FFF1FE80FF91FE159FD4F81819281E3
:10085000820F931F9093890080938800E091C801D4
:100860008E2FEE0F990BFC01EE0FFF1FE80FF91F03
:10087000E159FD4F808186FF11C0E091C8018E2FA4
:10088000EE0F990BFC01EE0FFF1FE80FF91FE15966
:10089000FD4F808161E08F730E94A600FF91EF9170
:1008A000DF91CF91BF91AF919F918F917F916F9188
:1008B0005F914F913F912F910F900FBE0F901F901E
:1008C000189580E49CE990938900809388008FEFCD
:1008D0008093C801E3CF1092D5011092D40188EE25
:1008E00093E0A0E0B0E08093D6019093D701A0936D
:1008F000D801B093D90184E091E09093D301809323
:10090000D20185EC90E09093DF018093DE0184ECCE
:1009100090E09093E1018093E00180EC90E090936F
:10092000E3018093E20181EC90E09093E5018093F4
:10093000E40182EC90E09093E7018093E60186EC7D
:1009400090E09093E9018093E8011092EB011092FE
:10095000EC011092ED011092EE01809193028C3027
:1009600048F591E0980F909393028093970290E05E
:10097000FC01EE0FFF1FE80FF91FE159FD4F88EB57
:100980009BE092838183809193028C30B8F491E054
:10099000980F909393028093940290E0FC01EE0FE5
:1009A000FF1FE80FF91FE159FD4F88EB9BE0928391
:1009B000818308958FEF80939702E5CF8FEF809327
:1009C00094020895CF93DF93CDB7DEB7A2970FB609
:1009D000F894DEBF0FBECDBF789484B5826084BD2D
:1009E00084B5816084BD85B5826085BD85B5816033
:1009F00085BD80916E00816080936E0010928100B1
:100A0000809181008260809381008091810081606B
:100A1000809381008091800081608093800080912C
:100A2000B10084608093B1008091B00081608093B8
:100A3000B00080917A00846080937A0080917A007F
:100A4000826080937A0080917A00816080937A003E
:100A500080917A00806880937A001092C100E091C2
:100A6000E201F091E30182E08083E091DE01F09108
:100A7000DF011082E091E001F091E1018FEC8083D1
:100A80001092EA01E091E601F091E70186E08083AF
:100A9000E091E401F091E501808180618083E09143
:100AA000E401F091E501808188608083E091E401B8
:100AB000F091E501808180688083E091E401F0910C
:100AC000E50180818F7D8083809197028C3008F0D2
:100AD00042C08AE00E94870080919702282F30E070
:100AE000F901EE0FFF1FE20FF31FE159FD4F908157
:100AF000907C9A60908310929802109299022CE058
:100B0000622F0E94D30790E0829FB001112430E051
:100B100020E0AB01420F531FFA01EE0FFF1FE40F5D
:100B2000F51FE159FD4F408146FD07C02F5F3F4F44
:100B30002C30310571F70E94E002E09197028E2F70
:100B400090E0FC01EE0FFF1FE80FF91FE159FD4F88
:100B5000808180648083809194028C3008F042C050
:100B60008BE00E94870080919402282F30E0F901E9
:100B7000EE0FFF1FE20FF31FE159FD4F9081907CB4
:100B80009B60908310929502109296022CE0622F47
:100B90000E94D30790E0829FB001112430E020E052
:100BA000AB01420F531FFA01EE0FFF1FE40FF51FB9
:100BB000E159FD4F408146FD07C02F5F3F4F2C306C
:100BC000310571F70E94E002E09194028E2F90E0CF
:100BD000FC01EE0FFF1FE80FF91FE159FD4F808167
:100BE0008064808385E00E9487006AE570E087E981
:100BF00092E00E9464026AE570E084E992E00E945B
:100C000064029AE0492E512C612C712C20E0222E96
:100C100020E0322E82ED91E00E94B50118161906EF
:100C20000CF0CFC082ED91E00E9453018AA30E9494
:100C30007501FC0197FD9FC08D32910521F0C09791
:100C40000A9708F091C0C12CD12C760110E0E13058
:100C5000F105D9F0ED32F10509F48BC0CF01C09751
:100C60000A9798F4AAE0B0E0A70196010E948F07C6
:100C70006F01FF0FEE08FF08C60ED71EE81EF91E13
:100C800020E3C21AD108E108F10882ED91E00E9448
:100C900053010E947501FC01C0970A97C0F2E13030
:100CA000F105A9F2112341F0F094E094D094C0949E
:100CB000C11CD11CE11CF11C860185E191E00E9460
:100CC000F2026AA182ED91E00E94F70182E191E0D7
:100CD0000E94F2028FE191E00E94F20246010D2C87
:100CE000000CAA08BB08B7FE4AC06DE282ED91E095
:100CF0000E94F70122273327A901281939094A0937
:100D00005B0919A2CE0181964C01CA01B901A30168
:100D100092010E94A207605DF40162934F012115C8
:100D200031054105510589F78114910419F0C40179
:100D30000E94F20282E191E00E94F202FAA1FC36E6
:100D400009F473C0F53789F181EA91E0F23649F48C
:100D5000B80187E992E025EBC216D10480F187E261
:100D600091E00E94FF022DC082ED91E00E945301AC
:100D70005ECF11E08ACFC12CD12C76019DCFA50189
:100D8000940119A2CE0181964C01CA01B901A301B7
:100D900092010E94A207605DF40162934F01211548
:100DA00031054105510589F7BFCF84E1C81AD10843
:100DB0009DE8C916D104B0F5B80184E992E00E941B
:100DC00064020E94F2004B015C0188E8C82E83E1B6
:100DD000D82EE12CF12C0E94F200681979098A09B9
:100DE0009B09683E734081059105A8F3F1E0CF1A95
:100DF000D108E108F10828EE820E23E0921EA11C22
:100E0000B11CC114D104E104F10429F72114310407
:100E100009F400CF0E94C101882309F4FBCE0E948F
:100E20000000F8CE8EE491E09CCFEFEFCE16D10417
:100E300011F008F052C085E00E94870001151105ED
:100E400029F460E085E00E94A600BBCF0F3F1105AA
:100E500011F461E0F7CFEDE6F0E08491833019F111
:100E600040F48130B1F08230C9F0003811058CF7C0
:100E7000E8CF873011F1883041F18430B1F78091AB
:100E80008000806280938000D0928B00C0928A00A4
:100E900098CF84B5806884BDC7BC93CF84B5806289
:100EA00084BDC8BC8ECF8091800080688093800014
:100EB000D0928900C092880084CF8091B000806871
:100EC0008093B000C092B3007CCF8091B00080626C
:100ED0008093B000C092B40074CF86E791E041CF18
:100EE000052E97FB1EF400940E94870757FD07D03C
:100EF0000E94A20707FC03D04EF40C94870750957C
:100F00004095309521953F4F4F4F5F4F08959095F5
:100F10008095709561957F4F8F4F9F4F08950E94E8
:100F2000C407A59F900DB49F900DA49F800D911DA7
:100F300011240895B7FF0C948F070E948F07821B1E
:100F4000930B0895A1E21A2EAA1BBB1BFD010DC035
:100F5000AA1FBB1FEE1FFF1FA217B307E407F50769
:100F600020F0A21BB30BE40BF50B661F771F881F45
:100F7000991F1A9469F760957095809590959B01DB
:100F8000AC01BD01CF010895A29FB001B39FC00184
:100F9000A39F700D811D1124911DB29F700D811DA5
:100FA0001124911D0895991B79E004C0991F96178B
:100FB00008F0961B881F7A95C9F780950895EE0F63
:0E0FC000FF1F0590F491E02D0994F894FFCFE7
:100FCE0000000000F701170144014402B50153016E
:100FDE0067010D0A00436F6D6D616E643A20005615
:100FEE00616C75653A200042617365207365727697
:100FFE006F2076616C7565206F7574206F66207238
:10100E00616E67652028302D313830292E005570DD
:10101E0070657220736572766F2076616C756520CF
:10102E006F7574206F662072616E67652028302D93
:10103E00313830292E004C4544206272696768743D
:10104E006E6573732076616C7565206F7574206F95
:10105E00662072616E67652028302D323535292E57
:10106E0000496E76616C696420636F6D6D616E64AC
:10107E002E20557365202762272C202775272C20BC
:08108E006F7220276C272E0071
:00000001FF
